:10000000002000102501000089010000910100007E
:1000100099010000A1010000A901000000000000FA
:10002000000000000000000000000000B10100001E
:10003000B901000000000000C1010000C90100007A
:10004000D1010000D1010000D1010000D101000068
:10005000D1010000D1010000D1010000D101000058
:10006000D1010000D1010000D1010000D101000048
:10007000D1010000D1010000D1010000D101000038
:10008000D1010000D1010000D1010000D101000028
:10009000D1010000D1010000D1010000D101000018
:1000A000D1010000D1010000D1010000D101000008
:1000B000D1010000D1010000D1010000D1010000F8
:1000C000D1010000D1010000D1010000D1010000E8
:1000D000D1010000D1010000D1010000D1010000D8
:1000E000D1010000D1010000D1010000D1010000C8
:1000F000D1010000D1010000D1010000D1010000B8
:10010000D1010000D1010000D1010000D1010000A7
:10011000D1010000D1010000D1010000D101000097
:10012000D101000080B582B000AF114B7B60114B54
:100130003B6007E03B681A1D3A607A68111D7960E0
:1001400012681A603B680C4A9342F3D30C480D497D
:100150004FF000028842B8BF40F8042BFADB074B8F
:10016000002B02D0AFF3008001E000F0C7F8FEE7FB
:10017000A0040000000000100000001000000000BB
:10018000000000100000001080B400AFFEE700BFC8
:1001900080B400AFFEE700BF80B400AFFEE700BF51
:1001A00080B400AFFEE700BF80B400AFFEE700BF41
:1001B00080B400AFFEE700BF80B400AFFEE700BF31
:1001C00080B400AFFEE700BF80B400AFFEE700BF21
:1001D00080B400AFFEE700BF80B483B000AF454AF3
:1001E000444BD3F8383223F02003C2F83832414B65
:1001F00000221A6200237B6003E000BF7B680133AA
:100200007B607B68C72BF8D93A4B01221A64394BC3
:1002100001225A64374B00225A64364B01225A6439
:1002200000BF344B5B6C03F00103002BF9D0314B62
:1002300025229A602F4A2F4BD3F8383223F08003BF
:10024000C2F8383200BF2B4BDB6803F00103002BF0
:10025000F9D0284B03221A67264B01225A67254BF7
:1002600000225A67234B01225A6700BF214B5B6F64
:1002700003F00103002BF9D01E4A1E4BD3F838328D
:1002800023F48063C2F838321A4A1A4BD3F8383252
:1002900023F48073C2F83832164B01229A64154B4E
:1002A0000122DA64134B0022DA64124B0122DA6471
:1002B00000BF104BDB6C03F00103002BF9D00D4B9A
:1002C00003221A6100BF0B4B5B6903F00103002B93
:1002D000F9D0084B0022C3F8C020064B01229A67D0
:1002E000044B054AC3F880200C37BD465DF8047BFB
:1002F000704700BF008004405F00010080B582B0FD
:1003000000AF00237B60604A5F4BD3F8803043F03E
:100310004003C2F88030FFF75FFF5C4A5B4BD3F8C5
:10032000803043F00103C2F88030594B03F500439D
:1003300004221A60574B03F5004340F6F4721A602A
:10034000554B03F5004301221A60514B03F57F53CF
:100350003C3304221A6050494F4B03F57F533C3322
:100360001B6823F0010201F57F533C331A604949B1
:10037000484B03F57F533C331B6843F0040201F5FF
:100380007F533C331A604349424B03F57F533C3360
:100390001B6843F47F6201F57F533C331A603E498A
:1003A0003D4B03F57F533C331B6843F0010201F5DD
:1003B0007F533C331A603749364B03F57F533C3348
:1003C0001B6843F0040201F57F533C331A60314946
:1003D000304B03F57F533C331B6843F0100201F5AB
:1003E0007F533C331A602B492A4B03F57F533C3330
:1003F0001B6823F47E6201F57F533C331A600023AF
:100400007B6002E07B6801337B607B68234A934218
:10041000F8D92149204B03F57F533C331B6823F067
:10042000010201F57F533C331A601A49194B03F559
:100430007F533C331B6823F0040201F57F533C33A8
:100440001A601449134B03F57F533C331B6823F0A8
:10045000100201F57F533C331A600E490D4B03F532
:100460007F533C331B6843F47E6201F57F533C337A
:100470001A6000237B6002E07B6801337B607B684D
:10048000064A9342F8D98AE70080044000400440BD
:10049000000003500000015000000250C0C62D00B3
:0400000300000125D3
:00000001FF
