:1000000000200010311A0000951A00009D1A00000F
:10001000A51A0000AD1A0000B51A0000000000008B
:10002000000000000000000000000000BD1A0000F9
:10003000C51A000000000000CD1A0000D51A00000B
:10004000DD1A0000DD1A0000DD1A0000DD1A0000D4
:10005000DD1A0000DD1A0000DD1A0000DD1A0000C4
:10006000DD1A0000DD1A0000DD1A0000DD1A0000B4
:10007000DD1A0000DD1A0000DD1A0000DD1A0000A4
:10008000DD1A0000DD1A0000DD1A0000DD1A000094
:10009000DD1A0000DD1A0000DD1A0000DD1A000084
:1000A000DD1A0000DD1A0000DD1A0000DD1A000074
:1000B000DD1A0000DD1A0000DD1A0000DD1A000064
:1000C000DD1A0000DD1A0000DD1A0000DD1A000054
:1000D000DD1A0000DD1A0000DD1A0000DD1A000044
:1000E000DD1A0000DD1A0000DD1A00009D09000085
:1000F000DD1A0000DD1A0000DD1A00006D19000095
:10010000DD1A0000DD1A0000DD1A0000DD1A000013
:10011000DD1A0000DD1A0000DD1A0000DD1A000003
:10012000DD1A000080B582B000AF0346FB71A44A1F
:10013000A34BD3F8803043F40053C2F88030FB79EE
:10014000072B00F2248101A252F823F06D01000078
:10015000AB010000E7010000230200006F02000075
:10016000BB0200000703000043030000954A954BC3
:100170005B6F23F080035367924A924B5B6F23F0CF
:10018000100353678F4A8F4B5B6F23F02003536735
:100190008C4A8C4B5B6F43F00203536700220B21A8
:1001A0004FF0A04000F0C2F9F3E0864A854B9B6F08
:1001B00023F080039367834A824B9B6F23F01003E5
:1001C0009367804A7F4B9B6F23F0200393677D4AA0
:1001D0007C4B9B6F43F002039367002200217A4817
:1001E00000F0A4F9D5E0774A764BDB6F23F080036B
:1001F000D367744A734BDB6F23F01003D367714AE4
:10020000704BDB6F23F02003D3676E4A6D4BDB6FBF
:1002100043F00203D367002201216B4800F086F906
:10022000B7E0684A674BD3F8803023F08003C2F808
:100230008030644A634BD3F8803023F01003C2F857
:100240008030604A5F4BD3F8803023F02003C2F83F
:1002500080305C4A5B4BD3F8803043F00203C2F835
:10026000803000220221584800F060F991E0554AA0
:10027000544BD3F8903023F08003C2F89030514AA9
:10028000504BD3F8903023F01003C2F890304D4A11
:100290004C4BD3F8903023F02003C2F89030494AF9
:1002A000484BD3F8903043F00203C2F8903000225C
:1002B0000321454800F03AF96BE0424A414BD3F83C
:1002C000943023F08003C2F894303E4A3D4BD3F87B
:1002D000943023F01003C2F894303A4A394BD3F8E3
:1002E000943023F02003C2F89430364A354BD3F8CB
:1002F000943043F00203C2F89430002204213248C3
:1003000000F014F945E02F4A2E4BDB6E23F08003FA
:10031000D3662C4A2B4BDB6E23F01003D366294A9D
:10032000284BDB6E23F02003D366264A254BDB6E79
:1003300043F00203D36600220A21234800F0F6F8B6
:1003400027E0204A1F4BD3F8983023F08003C2F8EF
:1003500098301C4A1B4BD3F8983023F01003C2F896
:100360009830184A174BD3F8983023F02003C2F87E
:100370009830144A134BD3F8983043F00203C2F874
:10038000983000220B21104800F0D0F801E0002343
:1003900011E00E490D4B1B68FA79012000FA02F2B8
:1003A000134343F480330B60084A084B1B6843F443
:1003B00070631360012318460837BD4680BD00BF37
:1003C00000800440004004400000015000C0014093
:1003D00080B400AF094A094BD3F8803043F400538E
:1003E000C2F88030054A054BD3F8383223F01003A9
:1003F000C2F8383200BFBD4680BC70470080044060
:1004000080B485B000AF0346FB710023FB81FB790C
:10041000072B00F2838001A252F823F03D04000074
:10042000590400007504000091040000AD040000B0
:10043000C9040000E50400000105000000BF3A4BBC
:100440001B69DB0F012BFAD1374B1B699B099BB250
:10045000C3F30903FB8161E000BF334B5B69DB0F32
:10046000012BFAD1304B5B699B099BB2C3F30903A3
:10047000FB8153E000BF2C4B9B69DB0F012BFAD1B2
:10048000294B9B699B099BB2C3F30903FB8145E0A0
:1004900000BF254BDB69DB0F012BFAD1224BDB6957
:1004A0009B099BB2C3F30903FB8137E000BF1E4BDE
:1004B0001B6ADB0F012BFAD11B4B1B6A9B099BB2FA
:1004C000C3F30903FB8129E000BF174B5B6ADB0F15
:1004D000012BFAD1144B5B6A9B099BB2C3F309034E
:1004E000FB811BE000BF104B9B6ADB0F012BFAD195
:1004F0000D4B9B6A9B099BB2C3F30903FB810DE083
:1005000000BF094BDB6ADB0F012BFAD1064BDB6A1C
:100510009B099BB2C3F30903FB8100BFFB8918460B
:100520001437BD4680BC704700C0014080B483B022
:1005300000AF78600B46FB701346BB70BB78012B95
:100540000DD17B6803F500431B68FA78012101FA9D
:1005500002F21A437B6803F500431A6010E0BB788F
:10056000002B0DD17B6803F500431B68FA7801214D
:1005700001FA02F2D2431A407B6803F500431A6085
:1005800000BF0C37BD4680BC704700BF80B400AFD1
:10059000054A054BD3F8803043F04003C2F8803061
:1005A00000BFBD4680BC70470080044080B483B06B
:1005B00000AF78600B46FB707B6803F57F533C33DC
:1005C0001B68FA78012101FA02F21A437B6803F5ED
:1005D0007F533C331A6000BF0C37BD4680BC704768
:1005E00080B483B000AF78600B46FB707B6803F586
:1005F0007F533C331B68FA78012101FA02F2D2439F
:100600001A407B6803F57F533C331A6000BF0C37F8
:10061000BD4680BC704700BF80B586B000AF0346C2
:10062000B9607A60FB730023FB82474A464BD3F8DC
:10063000803043F08003C2F88030BB68434A934265
:1006400026D8BB6840F24C42934216D9B86802F0F3
:1006500083F8034619464FF07E5002F089F90346AD
:100660003B49184602F0D0F80346184602F01CFA3F
:1006700003469AB2374B1A800CE0BA6813461B0443
:100680009B1A354AB2FBF3F39BB2013BFB8201E0BC
:10069000012354E0FB7B012B10D0022B1BD0002B3D
:1006A00026D12E4A2D4B1B6E43F002031366012206
:1006B00008214FF0A040FFF739FF1BE0274A274BE6
:1006C0005B6E43F002035366012209214FF0A04004
:1006D000FFF72CFF0EE0214A204B9B6E43F00203F4
:1006E000936601220A214FF0A040FFF71FFF01E0AF
:1006F000012324E0FB7B7968184600F041F8184A92
:10070000174B5B6843F002035360154B5B68144B57
:1007100000225A60124B4FF480625A61104AFB8AE1
:10072000D3600F4B0B4A12885A620D490C4B5B6F1A
:10073000FA7B012000FA02F213434B6700231846AC
:100740001837BD4680BD00BF00800440FF1AB700C7
:100750004054894C0000001000A24A0400400440AC
:1007600000C0004080B400AF044A044B5B6843F013
:100770000103536000BFBD4680BC704700C000400D
:100780002DE9F04383B000AF03463960FB71FB797C
:10079000012B30D0022B5AD0002B40F08480484CE3
:1007A000484B1B88184601F089FB05460E46454B11
:1007B0001B88184601F082FB80468946386801F0A4
:1007C0008FFB3DA3D3E9002301F0DEFB02460B467D
:1007D0004046494601F0D8FB02460B4628463146C2
:1007E00001F01EFA02460B461046194601F08EFE35
:1007F0000346A36159E0324C324B1B88184601F086
:100800005DFB05460E462F4B1B88184601F056FB34
:1008100080468946386801F063FB27A3D3E90023AB
:1008200001F0B2FB02460B464046494601F0ACFBE4
:1008300002460B462846314601F0F2F902460B46C5
:100840001046194601F062FE0346E3612DE01C4CA0
:100850001C4B1B88184601F031FB05460E46194B10
:100860001B88184601F02AFB80468946386801F04B
:1008700037FB11A3D3E9002301F086FB02460B46A8
:100880004046494601F080FB02460B462846314669
:1008900001F0C6F902460B461046194601F036FE35
:1008A0000346236201E0002300E0012318460C37D1
:1008B000BD46BDE8F08300BF7B14AE47E17A843FBC
:1008C00000C000400000001080B483B000AF0346B9
:1008D000FB71084997F907305B09FA7902F01F02AA
:1008E000012000FA02F241F8232000BF0C37BD4678
:1008F00080BC704700E100E080B582B000AF786056
:10090000124A124BD3F8803043F40073C2F880309F
:100910000F4A0F4B5B6843F0020353600C4B5B685C
:100920000B4B00225A600A4B00221A67084B4822E0
:10093000DA60074B03225A612B20FFF7C5FF054AF7
:100940007B68136000BF0837BD4680BD008004404F
:10095000004001404400001080B400AF044A044B42
:100960005B6843F00103536000BFBD4680BC704725
:100970000040014080B483B000AF78607B68002BFA
:1009800004D0054A7B689361012300E000231846E8
:100990000C37BD4680BC70470040014080B500AFB9
:1009A000054B1B689847054A044B1B6843F001033D
:1009B000136000BF80BD00BF440000100040014034
:1009C00080B500AF01F08EF81E4A1F490020FFF7E6
:1009D00023FE0020FFF7A6FB0120FFF7A3FB022068
:1009E000FFF7A0FB0320FFF79DFBFFF7CFFD0122E0
:1009F00006211648FFF79AFD012200211348FFF750
:100A000095FD06211148FFF7D1FD00210F48FFF7A2
:100A1000E7FD00F03BFC0E4800F0AAFC0D48FFF794
:100A20006BFF3220FFF7A6FF0B4B00225A800A4BC8
:100A30000022DA80084B00221A80074B00229A809D
:100A400000BF80BD0000A040A08601000000025051
:100A500061100000310B00005800001080B500AF9D
:100A6000FFF780FEFFF7B4FCFFF776FF00BF80BD05
:100A700080B485B000AF78600023FB6002E0FB68C3
:100A80000133FB60FA687B689A42F8D300BF1437E1
:100A9000BD4680BC704700BF80B586B000AF03463E
:100AA000FB710023FB820023FB81FB79013B032BBD
:100AB00036D801A252F823F0C90A0000D50A000076
:100AC000090B0000150B00000220FFF799FC0346FC
:100AD000FB8226E000233B610CE00320FFF790FC43
:100AE0000346FB81FA8AFB8913449BB2FB823B6974
:100AF00001333B613B69012BEFDDB7F91630DA0FAB
:100B000013445B10FB820CE00020FFF779FC0346E6
:100B1000FB8206E00120FFF773FC0346FB8200E046
:100B200000BFFB8A18461837BD4680BD0000000094
:100B3000B0B592B000AFA2A4D4E90034C7E90A343A
:100B4000A1A4D4E90034C7E90834A1A4D4E900344D
:100B5000C7E906344FF000034FF00004C7E904343E
:100B60004FF000034FF00004C7E902344FF00003D8
:100B70004FF00004C7E91034012387F83F3096A4F2
:100B8000D4E90034C7E90C3400237B600F23FB70E9
:100B90000120FFF781FF03461A46974B1A80022077
:100BA000FFF77AFF03461A46934B5A80924B988878
:100BB000914B5B880022194600F0AAF903463B805E
:100BC0008D4BDB881A468C4B5B88D31A7B608B4B32
:100BD0001A687B681344894A1360884B1B68884AEB
:100BE000934203DD854B864A1A6007E0834B1B68FE
:100BF000844A934202DA814B824A1A60786801F093
:100C00005DF9D7E90A2301F0BFF903460C462546F2
:100C10001C467A4B1B68184601F050F9D7E90823A7
:100C200001F0B2F902460B4610461946D7E90623F1
:100C300001F0AAF902460B462046294600F0F2FFD1
:100C400003460C46C7E902343B886B4A12889B1A5C
:100C50007B606D4B1A687B6813446B4A13606A4B68
:100C60001B68674A934203DD674B654A1A6007E0D9
:100C7000654B1B68634A934202DA634B614A1A6010
:100C80005D4B5B88002B02D1022387F83F305F4B1E
:100C90001B7897F83F209A4248D9574B1B88194632
:100CA0003A88FB78134499424FDD534B5B88182BED
:100CB00016D8514B5B88184601F000F948A3D3E9D8
:100CC000002301F061F903460C461846214646A36D
:100CD000D3E9002300F0A6FF03460C46C7E90C3415
:100CE000454B5B88022B04D841A4D4E90034C7E902
:100CF0000C34454B1B68184601F0E0F8D7E90C238B
:100D000001F06CFA03460C461846214601F0D6FB6A
:100D100002463D4B1A603D4B1B780133DAB23B4B28
:100D20001A70354B9A883A4B1A800EE0324B9A88EB
:100D3000374B1B889A4205D12F4B5A882E4BDB88A4
:100D40009A4202D9314B00221A70786801F0B6F845
:100D5000D7E90A2301F018F903460C4625461C463C
:100D6000294B1B68184601F0A9F8D7E9082301F0C0
:100D70000BF902460B4610461946D7E9062301F047
:100D800003F902460B462046294600F04BFF034676
:100D90000C46C7E90434D7E90223D7E9040101F07E
:100DA00083FB0346002B35D0134B1B883A889A42AD
:100DB00030D9D7E90234C7E910342FE0AFF300800F
:100DC000337678BE558DD43E355EBA490C02094063
:100DD0002D431CEBE2361A3F333333333333FB3FBF
:100DE000B81E85EB51B8AEBF6666666666660A4099
:100DF0006666666666660640580000104800001089
:100E000090D00300702FFCFF4C0000105000001029
:100E100052000010D7E90434C7E91034374B5A8820
:100E2000364BDB889A4207D0344B5B881A46334BEB
:100E3000DB880E3B9A420CDD304BDB88002B08D060
:100E400006212F48FFF7B2FB00212D48FFF7C8FB12
:100E500007E006212A48FFF7C3FB00212848FFF7D7
:100E6000A5FB4FF00002274BD7E9100101F01CFB56
:100E70000346002B04D04FF00003224CC7E9103486
:100E80001E4B1B8840F2F23293420BD94FF0000305
:100E90004FF00004C7E910341B4B00221A601B4BB3
:100EA00000221A604FF000024FF00003D7E9100152
:100EB00001F0DCFA0346002B06D1104BDB88002B37
:100EC00002D03B88002B0BD14FF000034FF0000401
:100ED000C7E910340C4B00221A600C4B00221A6038
:100EE000D7E9100101F032FB034619460020FFF755
:100EF00047FC00BF4837BD46B0BD00BF58000010DA
:100F000000000250000054404C0000104800001047
:100F100080B586B000AF0346FB800B46BB8013460E
:100F2000FB700623FB750123BB750023FB813F4B40
:100F30003B61FB78012B01D1FF23BB75FB88F02BB4
:100F400001D90B23FB75FB8840F28A22934201D919
:100F50001423FB75BB88012B11D9BB885F2B0ED8DE
:100F60001323FB75FB88632B01D81023FB75FB88CB
:100F700040F28A22934215D91A23FB7512E0BB88EE
:100F80005F2B0AD9BB88F92B07D81823FB75FB8880
:100F9000772B07D81623FB7504E0BB88F92B01D902
:100FA0001A23FB75BB885F2B01D8214B3B61BB88A3
:100FB000602B0DD9BB88B3F59B7F09D2FB88B3F5B5
:100FC000967F02D91B4B3B6108E01B4B3B6105E060
:100FD000BB88B3F59B7F01D3184B3B61BB88184698
:100FE00001F0BAFB03463969184601F00DFC0346CF
:100FF000184601F059FD0346FB81FA89FB7D134435
:101000009BB297F9162092B202FB03F39AB2FB88C7
:101010001344FB80FB88B3F5996F01D30023FB8059
:10102000FB8818461837BD4680BD00BF5C8F423E26
:101030000AD7A33D68916D3DB6F3FD3CCDCCCC3CC9
:1010400080B582B000AF78600B46FB70FB789BB236
:101050001946786800F06AFC00BF0837BD4680BDBD
:1010600080B590B000AF78600023FB877B681B7869
:10107000012B25D17B6801331B781B021AB27B68D8
:1010800002331B781BB213431BB29AB2434B9A80B4
:101090007B6803331B781B021AB27B6804331B780E
:1010A0001BB213431BB29AB23C4BDA8007F1240304
:1010B00013211846FFF7C4FF7B6800221A7068E00E
:1010C0007B681B78022B2CD1344B1888334B5B8800
:1010D00001221946FFF71CFF0346FB870C2387F804
:1010E0002430FB8F1B0A9BB2DBB287F82530FB8FC5
:1010F000DBB287F82630294B5B881B0A9BB2DBB238
:1011000087F82730254B5B88DBB287F8283007F15A
:10111000240313211846FFF793FF7B6800221A70FF
:1011200037E07B681B78032B0FD107F124030321E1
:10113000184600F035F807F1240313211846FFF78D
:101140007FFF7B6800221A7023E07B681B78042BEA
:101150000FD107F124030421184600F021F807F10C
:10116000240313211846FFF76BFF7B6800221A70D7
:101170000FE07B681B78002B0BD0632387F82430AB
:1011800007F1240313211846FFF75AFF7B6800225A
:101190001A7000BF4037BD4680BD00BF5800001028
:1011A00090B58BB000AF78600B46FB70FB78042BDA
:1011B00002D0FB78032B4BD1002387F8273015E0B2
:1011C00097F82740FB781846FFF766FC03461A4657
:1011D000630007F128010B4423F81C2CDC20FFF7E7
:1011E00047FC97F82730013387F8273097F82730E6
:1011F0000B2BE5D9FB78032B03D17B680D221A70EA
:1012000005E0FB78042B02D17B680E221A700023C4
:1012100087F8263018E097F8263001337A681A44A8
:1012200097F826305B0007F128010B4433F81C3C8B
:101230000949A1FB0313DB089BB2DBB2137097F8DB
:101240002630013387F8263097F826300B2BE2D969
:1012500000BF2C37BD4690BDCDCCCCCC80B483B084
:1012600000AF0346FB71084997F907305B09FA792B
:1012700002F01F02012000FA02F241F8232000BF11
:101280000C37BD4680BC704700E100E080B483B0FD
:1012900000AF354A344BD3F8383223F48063C2F8B8
:1012A0003832314A304BD3F8383223F48073C2F8E5
:1012B00038322D4B01229A642B4B0122DA642A4BDF
:1012C0000022DA64284B0122DA6400BF264BDB6C73
:1012D00003F00103002BF9D0234B03221A6100BF56
:1012E000214B5B6903F00103002BF9D01E4B002258
:1012F000C3F8C0201C4A1C4BD3F8803043F4A03301
:1013000043F04003C2F88030184A184BDB6A23F0E0
:101310001F03D362154A154BDB6A43F00103D36206
:10132000124A124BDB6C23F00703D3640F4A0F4BB6
:10133000DB6C43F00103D3640B4A0B4BD3F8383218
:1013400023F48063C2F838320023FB7103E000BF4E
:10135000FB790133FB71FB794A2BF8D900BF0C37BD
:10136000BD4680BC704700BF008004400040044080
:1013700080B582B000AF78600F4B104A9A600E4B78
:1013800040F2FE325A602F20FFF768FF01220C491D
:101390000C4800F01FF8012209490A4800F01AF829
:1013A00001220949094800F015F8094A7B6853648D
:1013B00000BF0837BD4680BD00000240FFFF0F00A0
:1013C000000180000005D000000101000005FE00C2
:1013D000A400001080B485B000AFF860B960134677
:1013E000FB710E4B4FF480629A600C4AFB681361EC
:1013F00000BF0A4B9B68FB79002B09D0074B4FF4C9
:1014000080629A60054ABB68136100BF034B9B680A
:1014100000BF1437BD4680BC704700BF00000240CB
:1014200080B483B000AF0346FB71164A154B9B682E
:1014300043F480639360134AFB791B0443F4A06375
:10144000136100BF0F4B1B6803F48063002BF9D0BE
:101450000C4A0C4B9B6843F400639360094AFB7988
:101460001B0443F40073136100BF064B1B6803F4B5
:101470000063002BF9D0034B5B6918460C37BD465F
:1014800080BC70470000024080B584B000AF0346C6
:10149000FB71204AFB799B0043F001039362062015
:1014A00000F0A4F8402200211B4801F01DFB194B5D
:1014B0001B6A9BB2C3F309037B810023FB6008E036
:1014C000144B9A691449FB6841F82320FB680133E7
:1014D000FB607B890333002B00DA03339B101A4631
:1014E000FB689A42ECD87B890B4A1364094B0022B3
:1014F0009A62FB790949184600F08EF87B8903331C
:10150000002B00DA03339B109BB218461037BD4600
:1015100080BD00BF00000240600000100005F20026
:1015200080B586B000AF0346B9607A60FB73FB7B81
:101530005B00DBB201337B757B7D1B0443F4A0634E
:10154000002200211846FFF745FF264AFB7B9B003F
:1015500043F002039362052000F048F8214A7B68BB
:10156000C3F3090353620023FB8228E000233B619D
:10157000FB8A9B001A46BB6813441B781946FB8AFA
:101580009B000133BA6813441B781B0241EA030233
:10159000FB8A9B000233B9680B441B781B041A4377
:1015A000FB8A9B000333B9680B441B781B0613436B
:1015B0003B610C4A3B69D361FB8A0133FB82FA8AA7
:1015C0007B6803339B089A42D0D3064B00229A6271
:1015D000FB7B0549184600F01FF800BF1837BD46D1
:1015E00080BD00BF000002400005FA0080B485B055
:1015F00000AF0346FB710023FB7303E000BFFB7BDE
:101600000133FB73FA7BFB799A42F7D300BF14379F
:10161000BD4680BC704700BF80B582B000AF0346B6
:101620003960FB71FB795B00012239681846FFF7CE
:10163000D1FE00BF0837BD4680BD00BF80B582B077
:1016400000AF0020FFF720FF7C4B1B681B0CFB80CA
:101650007A4B1B68DBB2802B3ED0802B02D8002B4C
:1016600007D0E1E0812B00F0B080A12B00F0CC800E
:10167000DAE0724B1B681B0ADBB2052B09D0092B81
:1016800018D0012B21D1002200210020FFF748FFB4
:1016900021E0FB881B0443F4000343F48073012220
:1016A00019466748FFF796FE002200210020FFF749
:1016B00037FF10E0012263496348FFF78BFE0022E9
:1016C00000210020FFF72CFF05E001225D495F4863
:1016D000FFF780FE00BFADE0584B1B681B0ADBB272
:1016E000062B6BD1FB881B0A9BB2013B052B5BD8F9
:1016F00001A252F823F000BF111700001D170000CF
:101700005F170000A9170000A91700009D1700002F
:1017100012224F490020FFF703FF4EE0474B5B6862
:101720001B0C282B08D8454B5B681B0C1A464949F3
:101730000020FFF7F5FE04E0292246490020FFF7CC
:10174000EFFE454B1B780133DAB2434B1A70424B24
:101750001B78042B2ED9404B05221A702AE0FB88F7
:10176000DBB2042B0DDCFB88DBB23C4A52F82310C1
:10177000FB88DBB23A4AD35C1A460020FFF7D0FE62
:1017800004E001222F493148FFF724FE354B1B7836
:10179000042B11D1334BFF221A700DE00A2232497B
:1017A0000020FFF7BDFE08E0012226492748FFF789
:1017B00011FE02E000BF07E000BF05E00122214961
:1017C0002248FFF707FE00BF34E01C4B1B681B0AD2
:1017D000DBB2062B0AD1FB881B0A9BB2222B05D158
:1017E0001B2222490020FFF79BFE23E0012215491E
:1017F0001648FFF7EFFD06211D48FEF7F1FE002118
:101800001B48FEF7D3FE15E01A4B1B881A461749F2
:101810000020FFF785FE06211548FEF7E1FE0021B6
:101820001348FEF7C3FE05E0012206490748FFF70B
:10183000D1FD00BF00BF0837BD4680BD600000106D
:101840000005D000000101000005D800000541009E
:10185000A42B000004000010540000103000001001
:10186000482C000055000010B82B0000842B00000D
:1018700000000250A02B000080B584B000AF012012
:10188000FFF702FE0346FB800120FFF7FDFD00236A
:10189000FB6007E0234AFB68134400221A70FB68D0
:1018A0000133FB60FB683F2BF4DD0023BB602CE0C1
:1018B000BB689B001C49BA6851F82220D1B2194A72
:1018C000D154BB689B0001331749BA6851F82220F4
:1018D000120AD1B2134AD154BB689B000233124999
:1018E000BA6851F82220120CD1B20E4AD154BB680A
:1018F0009B0003330C49BA6851F82220120ED1B272
:10190000084AD154BB680133BB60FA88BB689A426D
:10191000CEDC044B5B6C0348984700BF1037BD46D4
:1019200080BD00BFA40000106000001080B582B030
:1019300000AF78600B467B807B881A46796801206F
:10194000FFF7EEFD00BF0837BD4680BD80B582B011
:1019500000AF0346FB71FB794033DBB21846FFF75B
:101960005FFD00BF0837BD4680BD00BF80B584B0B5
:1019700000AF0023FB602A4B1B68BB60284ABB6892
:101980009360BB6803F40073002B1CD0002200217D
:101990002448FFF71FFD224B4FF440629A60204B12
:1019A000214A1A6100BF1E4B1B681D4B5B697B609F
:1019B0007B68102B30D11A4B1C4A9A60184B40F2AE
:1019C0001E225A6028E0BB6803F00203002B10D0EF
:1019D0004020FFF725FD0346DBB2FB60FB6803F008
:1019E0000403002B18D00020FFF7B0FFFFF726FEFE
:1019F00012E0BB6803F00803002B05D00220FFF7BC
:101A0000A5FFFFF739FF07E0BB6803F01003002BC9
:101A100002D00320FFF79AFF00BF1037BD4680BDFC
:101A2000000002400005FE000002FE00FFFF0F0064
:101A300080B582B000AF114B7B60114B3B6007E07B
:101A40003B681A1D3A607A68111D796012681A6045
:101A50003B680C4A9342F3D30C480D494FF0000207
:101A60008842B8BF40F8042BFADB074B002B02D0AA
:101A7000AFF3008001E000F0C7F8FEE7582C00004B
:101A8000000000104400001000000000440000109E
:101A9000EC00001080B400AFFEE700BF80B400AFE0
:101AA000FEE700BF80B400AFFEE700BF80B400AF28
:101AB000FEE700BF80B400AFFEE700BF80B400AF18
:101AC000FEE700BF80B400AFFEE700BF80B400AF08
:101AD000FEE700BF80B400AFFEE700BF80B400AFF8
:101AE000FEE700BF80B483B000AF454A444BD3F853
:101AF000383223F02003C2F83832414B00221A62F8
:101B000000237B6003E000BF7B6801337B607B6860
:101B1000C72BF8D93A4B01221A64394B01225A6477
:101B2000374B00225A64364B01225A6400BF344BB3
:101B30005B6C03F00103002BF9D0314B25229A6036
:101B40002F4A2F4BD3F8383223F08003C2F83832B3
:101B500000BF2B4BDB6803F00103002BF9D0284BAF
:101B600003221A67264B01225A67254B00225A6727
:101B7000234B01225A6700BF214B5B6F03F0010327
:101B8000002BF9D01E4A1E4BD3F8383223F4806361
:101B9000C2F838321A4A1A4BD3F8383223F4807319
:101BA000C2F83832164B01229A64154B0122DA64CE
:101BB000134B0022DA64124B0122DA6400BF104B8F
:101BC000DB6C03F00103002BF9D00D4B03221A61EB
:101BD00000BF0B4B5B6903F00103002BF9D0084BEE
:101BE0000022C3F8C020064B01229A67044B054A25
:101BF000C3F8802000BF0C37BD4680BC704700BFD3
:101C0000008004405F00010080B500AFFEF7D8FE01
:101C1000FEF724FFFEE700BF81F0004102E000BFB5
:101C200083F0004330B54FEA41044FEA430594EA9C
:101C3000050F08BF90EA020F1FBF54EA000C55EAD7
:101C4000020C7FEA645C7FEA655C00F0E2804FEAA8
:101C50005454D4EB5555B8BF6D420CDD2C4480EA8A
:101C6000020281EA030382EA000083EA010180EABA
:101C7000020281EA0303362D88BF30BD11F0004F08
:101C80004FEA01314FF4801C4CEA113102D040423E
:101C900061EB410113F0004F4FEA03334CEA133379
:101CA00002D0524263EB430394EA050F00F0A78091
:101CB000A4F10104D5F1200E0DDB02FA0EFC22FA8C
:101CC00005F2801841F1000103FA0EF2801843FA80
:101CD00005F359410EE0A5F120050EF1200E012A71
:101CE00003FA0EFC28BF4CF0020C43FA05F3C018AF
:101CF00051EBE37101F0004507D54FF0000EDCF128
:101D0000000C7EEB00006EEB0101B1F5801F1BD3D0
:101D1000B1F5001F0CD349085FEA30004FEA3C0CD4
:101D200004F101044FEA445212F5800F80F09A80CA
:101D3000BCF1004F08BF5FEA500C50F1000041EBCE
:101D4000045141EA050130BD5FEA4C0C404141EBD2
:101D5000010111F4801FA4F10104E9D191F0000FF9
:101D600004BF01460020B1FA81F308BF2033A3F17C
:101D70000B03B3F120020CDA0C3208DD02F1140C73
:101D8000C2F10C0201FA0CF021FA02F10CE002F1AE
:101D90001402D8BFC2F1200C01FA02F120FA0CFCA7
:101DA000DCBF41EA0C019040E41AA2BF01EB0451F0
:101DB000294330BD6FEA04041F3C1CDA0C340EDCEE
:101DC00004F11404C4F1200220FA04F001FA02F331
:101DD00040EA030021FA04F345EA030130BDC4F1EF
:101DE0000C04C4F1200220FA02F001FA04F340EAE4
:101DF0000300294630BD21FA04F0294630BD94F095
:101E0000000F83F4801306BF81F480110134013D7B
:101E10004EE77FEA645C18BF7FEA655C29D094EAEC
:101E2000050F08BF90EA020F05D054EA000C04BF6A
:101E30001946104630BD91EA030F1EBF0021002055
:101E400030BD5FEA545C05D14000494128BF41F0F4
:101E5000004130BD14F580043CBF01F5801130BD58
:101E600001F0004545F0FE4141F470014FF00000E3
:101E700030BD7FEA645C1ABF194610467FEA655C94
:101E80001CBF0B46024650EA013406BF52EA033536
:101E900091EA030F41F4002130BD00BF90F0000F24
:101EA00004BF0021704730B54FF4806404F1320460
:101EB0004FF000054FF0000150E700BF90F0000F19
:101EC00004BF0021704730B54FF4806404F1320440
:101ED00010F0004548BF40424FF000013EE700BF10
:101EE00042004FEAE2014FEA31014FEA02701FBFA0
:101EF00012F07F4393F07F4F81F06051704792F072
:101F0000000F14BF93F07F4F704730B54FF46074EB
:101F100001F0004521F0004120E700BF50EA010236
:101F200008BF704730B54FF000050AE050EA0102E3
:101F300008BF704730B511F0004502D5404261EB53
:101F400041014FF4806404F132045FEA915C3FF494
:101F5000DCAE4FF003025FEADC0C18BF03325FEA2D
:101F6000DC0C18BF033202EBDC02C2F1200300FAE2
:101F700003FC20FA02F001FA03FE40EA0E0021FA07
:101F800002F11444C1E600BF70B54FF0FF0C4CF4F1
:101F9000E06C1CEA11541DBF1CEA135594EA0C0FA7
:101FA00095EA0C0F00F0DEF82C4481EA030621EAE2
:101FB0004C5123EA4C5350EA013518BF52EA03351D
:101FC00041F4801143F4801338D0A0FB02CE4FF0CF
:101FD0000005E1FB02E506F00042E0FB03E54FF0FF
:101FE0000006E1FB03569CF0000F18BF4EF0010EF7
:101FF000A4F1FF04B6F5007F64F5407404D25FEAF3
:102000004E0E6D4146EB060642EAC62141EA5551A5
:102010004FEAC52040EA5E504FEACE2EB4F1FD0CE7
:1020200088BFBCF5E06F1ED8BEF1004F08BF5FEA65
:10203000500E50F1000041EB045170BD06F0004617
:1020400046EA010140EA020081EA0301B4EB5C04C4
:10205000C2BFD4EB0C0541EA045170BD41F48011BC
:102060004FF0000E013C00F3AB8014F1360FDEBFE1
:10207000002001F0004170BDC4F10004203C35DABD
:102080000C341BDC04F11404C4F1200500FA05F340
:1020900020FA04F001FA05F240EA020001F00042E1
:1020A00021F0004110EBD37021FA04F642EB060157
:1020B0005EEA430E08BF20EAD37070BDC4F10C0481
:1020C000C4F1200500FA04F320FA05F001FA04F245
:1020D00040EA020001F0004110EBD37041F1000131
:1020E0005EEA430E08BF20EAD37070BDC4F120053C
:1020F00000FA05F24EEA020E20FA04F301FA05F2A4
:1021000043EA020321FA04F001F0004121FA04F24B
:1021100020EA020000EBD3705EEA430E08BF20EA1B
:10212000D37070BD94F0000F0FD101F00046400055
:1021300041EB010111F4801F08BF013CF7D041EAD7
:10214000060195F0000F18BF704703F000465200DB
:1021500043EB030313F4801F08BF013DF7D043EAAC
:102160000603704794EA0C0F0CEA135518BF95EA62
:102170000C0F0CD050EA410618BF52EA4306D1D1E9
:1021800081EA030101F000414FF0000070BD50EA08
:10219000410606BF1046194652EA430619D094EA92
:1021A0000C0F02D150EA013613D195EA0C0F05D17C
:1021B00052EA03361CBF104619460AD181EA0301D0
:1021C00001F0004141F0FE4141F470014FF0000088
:1021D00070BD41F0FE4141F4780170BD70B54FF023
:1021E000FF0C4CF4E06C1CEA11541DBF1CEA1355A3
:1021F00094EA0C0F95EA0C0F00F0A7F8A4EB050485
:1022000081EA030E52EA03354FEA013100F088807B
:102210004FEA03334FF0805545EA131343EA126344
:102220004FEA022245EA111545EA10654FEA0026F9
:102230000EF000419D4208BF964244F1FD0404F5B2
:10224000407402D25B084FEA3202B61A65EB03050E
:102250005B084FEA32024FF480104FF4002CB6EBCB
:10226000020E75EB030E22BFB61A754640EA0C004B
:102270005B084FEA3202B6EB020E75EB030E22BF8B
:10228000B61A754640EA5C005B084FEA3202B6EBCC
:10229000020E75EB030E22BFB61A754640EA9C008B
:1022A0005B084FEA3202B6EB020E75EB030E22BF5B
:1022B000B61A754640EADC0055EA060E18D04FEA19
:1022C000051545EA16754FEA06164FEAC30343EAB9
:1022D00052734FEAC2025FEA1C1CC0D111F4801F86
:1022E0000BD141EA00014FF000004FF0004CB6E77F
:1022F00011F4801F04BF01430020B4F1FD0C88BF1E
:10230000BCF5E06F3FF6AFAEB5EB030C04BFB6EB28
:10231000020C5FEA500C50F1000041EB045170BD1B
:102320000EF0004E4EEA113114EB5C04C2BFD4EB48
:102330000C0541EA045170BD41F480114FF0000ECC
:10234000013C90E645EA060E8DE60CEA135594EA48
:102350000C0F08BF95EA0C0F3FF43BAF94EA0C0F4B
:102360000AD150EA01347FF434AF95EA0C0F7FF4C0
:1023700025AF104619462CE795EA0C0F06D152EA14
:1023800003353FF4FDAE1046194622E750EA4106F8
:1023900018BF52EA43067FF4C5AE50EA41047FF409
:1023A0000DAF52EA43057FF4EBAE12E74FF0FF3C6E
:1023B00006E000BF4FF0010C02E000BF4FF0010C3F
:1023C0004DF804CD4FEA410C7FEA6C5C4FEA430CB8
:1023D00018BF7FEA6C5C1BD001B050EA410C0CBF07
:1023E00052EA430C91EA030F02BF90EA020F002069
:1023F000704710F1000F91EA030F58BF994208BFD0
:1024000090422CBFD8176FEAE37040F0010070478C
:102410004FEA410C7FEA6C5C02D150EA013C07D1E3
:102420004FEA430C7FEA6C5CD6D152EA033CD3D02E
:102430005DF8040B704700BF8446104662468C4628
:102440001946634600E000BF01B5FFF7B7FF00285B
:1024500048BF10F1000F01BD4DF808EDFFF7F4FF84
:102460000CBF012000205DF808FB00BF4DF808ED0F
:10247000FFF7EAFF34BF012000205DF808FB00BF32
:102480004DF808EDFFF7E0FF94BF012000205DF854
:1024900008FB00BF4DF808EDFFF7CEFF94BF012009
:1024A00000205DF808FB00BF4DF808EDFFF7C4FF02
:1024B00034BF012000205DF808FB00BF4FEA410255
:1024C00012F5001215D211D56FF47873B3EB625286
:1024D00012D94FEAC12343F0004343EA505311F0AD
:1024E000004F23FA02F018BF404270474FF000003F
:1024F000704750EA013005D111F0004008BF6FF07D
:10250000004070474FF00000704700BF4A0011D2F2
:1025100012F5001211D20DD56FF47873B3EB62523D
:102520000ED44FEAC12343F0004343EA505323FA49
:1025300002F070474FF00000704750EA013002D1BE
:102540004FF0FF3070474FF0000070474FEA4102F4
:10255000B2F1E04324BFB3F5001CDCF1FE5C0DD901
:1025600001F0004C4FEAC0024CEA5070B2F1004F4B
:1025700040EB830008BF20F00100704711F0804F4E
:1025800021D113F13872BCBF01F00040704741F413
:1025900080114FEA5252C2F11802C2F1200C10FA17
:1025A0000CF320FA02F018BF40F001004FEAC123FB
:1025B0004FEAD32303FA0CFC40EA0C0023FA02F39F
:1025C0004FEA4303CCE77FEA625307D150EA013375
:1025D0001EBF4FF0FE4040F44000704701F0004045
:1025E00040F0FE4040F40000704700BF80F0004023
:1025F00002E000BF81F0004142001FBF5FEA4103DB
:1026000092EA030F7FEA226C7FEA236C6AD04FEADA
:102610001262D2EB1363C1BFD2184140484041401F
:10262000B8BF5B42192B88BF704710F0004F40F4D1
:10263000000020F07F4018BF404211F0004F41F4ED
:10264000000121F07F4118BF494292EA030F3FD0B9
:10265000A2F1010241FA03FC10EB0C00C3F12003CC
:1026600001FA03F100F0004302D5494260EB40005B
:10267000B0F5000F13D3B0F1807F06D340084FEAC6
:10268000310102F10102FE2A51D2B1F1004F40EBBB
:10269000C25008BF20F0010040EA03007047490023
:1026A00040EB000010F4000FA2F10102EDD1B0FAEE
:1026B00080FCACF1080CB2EB0C0200FA0CF0AABFE3
:1026C00000EBC25052421843BCBFD0401843704781
:1026D00092F0000F81F4000106BF80F40000013287
:1026E000013BB5E74FEA41037FEA226C18BF7FEA5E
:1026F000236C21D092EA030F04D092F0000F08BFA0
:102700000846704790EA010F1CBF0020704712F086
:102710007F4F04D1400028BF40F00040704712F1C5
:1027200000723CBF00F50000704700F0004343F02A
:10273000FE4040F4000070477FEA226216BF084660
:102740007FEA23630146420206BF5FEA412390EA23
:10275000010F40F4800070474FF0000304E000BF19
:1027600010F0004348BF40425FEA000C08BF7047CA
:1027700043F0964301464FF000001CE050EA01028E
:1027800008BF70474FF000030AE000BF50EA0102A3
:1027900008BF704711F0004302D5404261EB410190
:1027A0005FEA010C02BF84460146002043F0B643B5
:1027B00008BFA3F18053A3F50003BCFA8CF2083ADA
:1027C000A3EBC25310DB01FA02FC634400FA02FCE3
:1027D000C2F12002BCF1004F20FA02F243EB0200EA
:1027E00008BF20F00100704702F1200201FA02FC4C
:1027F000C2F1200250EA4C0021FA02F243EB02003F
:1028000008BF20EADC7070474FF0FF0C1CEAD05282
:102810001EBF1CEAD15392EA0C0F93EA0C0F6FD043
:102820001A4480EA010C400218BF5FEA41211ED021
:102830004FF0006343EA501043EA5111A0FB01310D
:102840000CF00040B1F5000F3EBF490041EAD371E2
:102850005B0040EA010062F17F02FD2A1DD8B3F15E
:10286000004F40EBC25008BF20F00100704790F0CD
:10287000000F0CF0004C08BF49024CEA502040EA1F
:1028800051207F3AC2BFD2F1FF0340EAC2507047E5
:1028900040F400004FF00003013A5DDC12F1190F23
:1028A000DCBF00F000407047C2F10002410021FA95
:1028B00002F1C2F1200200FA02FC5FEA310040F1AD
:1028C000000053EA4C0308BF20EADC70704792F026
:1028D000000F00F0004C02BF400010F4000F013A5E
:1028E000F9D040EA0C0093F0000F01F0004C02BF59
:1028F000490011F4000F013BF9D041EA0C018FE7C8
:102900000CEAD15392EA0C0F18BF93EA0C0F0AD0CD
:1029100030F0004C18BF31F0004CD8D180EA0100F3
:1029200000F00040704790F0000F17BF90F0004F8C
:10293000084691F0000F91F0004F14D092EA0C0F6E
:1029400001D142020FD193EA0C0F03D14B0218BF01
:10295000084608D180EA010000F0004040F0FE4047
:1029600040F40000704740F0FE4040F440007047E3
:102970004FF0FF0C1CEAD0521EBF1CEAD15392EA62
:102980000C0F93EA0C0F69D0A2EB030280EA010C52
:1029900049024FEA402037D04FF0805343EA1111EB
:1029A00043EA10130CF000408B4238BF5B0042F149
:1029B0007D024FF4000C8B4224BF5B1A40EA0C00EE
:1029C000B3EB510F24BFA3EB510340EA5C00B3EB20
:1029D000910F24BFA3EB910340EA9C00B3EBD10F0E
:1029E00024BFA3EBD10340EADC001B0118BF5FEA60
:1029F0001C1CE0D1FD2A3FF650AF8B4240EBC25089
:102A000008BF20F0010070470CF0004C4CEA502049
:102A10007F32C2BFD2F1FF0340EAC250704740F498
:102A200000004FF00003013A37E792F0000F00F08A
:102A3000004C02BF400010F4000F013AF9D040EA08
:102A40000C0093F0000F01F0004C02BF490011F49C
:102A5000000F013BF9D041EA0C0195E70CEAD15394
:102A600092EA0C0F08D142027FF47DAF93EA0C0F7B
:102A70007FF470AF084676E793EA0C0F04D14B025F
:102A80003FF44CAF08466EE730F0004C18BF31F011
:102A9000004CCAD130F000427FF45CAF31F000430B
:102AA0007FF43CAF5FE700BF42000ED2B2F1FE4FB1
:102AB0000BD34FF09E03B3EB126209D44FEA00230D
:102AC00043F0004323FA02F070474FF000007047D4
:102AD00012F1610F01D1420202D14FF0FF30704775
:102AE0004FF00000704700BF70B4840746D0541EFA
:102AF000002A41D0CDB2034602E0621EE4B3144680
:102B000003F8015B9A07F8D1032C2ED9CDB245EA20
:102B100005250F2C45EA054519D9264603F1100273
:102B2000103E0F2E42F8105C42F80C5C42F8085C34
:102B300042F8045C02F11002F2D8A4F1100222F073
:102B40000F0204F00F041032032C13440DD91E465B
:102B50002246043A032A46F8045BFAD8221F22F0E0
:102B600003020432134404F003042CB1C9B21C4420
:102B700003F8011BA342FBD170BC70471446034607
:102B8000C2E700BF0600FF0900A101150026FF00F3
:102B90007508951309018102950909019102C00088
:102BA0001B0000001201000200000040C91F0300CA
:102BB00000010102030100001006000200000040B5
:102BC00001000000040309041E034F0050004500EB
:102BD0004E004C00410042002000460048005400D6
:102BE00057002000200000003E0355002F00490040
:102BF0005F0073006F0075007200630065002000C5
:102C000048002F005600200031002E0030002E001A
:102C10003000200053002F005600200031002E000D
:102C200030002E00300000001A032A002A002A007B
:102C30002A002A002A002A002A002A002A002A0044
:0D2C40000803480049004400041E3E180827
:102C5800FFFF000009022900010100C0F709040074
:102C6800000203000004092100010001221B0007E3
:102C780005810340002007050103400020000000F3
:102C8800C42B0000C82B0000E82B0000282C0000F3
:042C9800402C0000CC
:0400000300001A31AE
:00000001FF
