:100000000C948A000C94A7000C94A7000C94A700F1
:100010000C94A7000C94A7000C94A7000C94A700C4
:100020000C94A7000C94A7000C94A7000C94BE0499
:100030000C94A7000C94A7000C94A7000C94A700A4
:100040000C94A7000C94A7000C94A7000C94A70094
:100050000C94A7000C94A7000C94A7000C94A70084
:100060000C94A7000C94A7000C94A7000C94A70074
:100070000C94A7005B027802240378022403B002E8
:10008000D2022403F402070322035300690067002D
:100090006E0061006C00200041006D0070006C007B
:1000A00069006600690065007200000012034A00E2
:1000B00061006B006F00620020004B002E0000000A
:1000C0000403090409023E00020100C032090400D1
:1000D00000010202010005240010010424020605AB
:1000E00024060001070582030800FF09040100023D
:1000F0000A0000000705040210000507058302102E
:1001000000051201100102000008EB034420010069
:100110000102000111241FBECFEFD2E0DEBFCDBF30
:1001200011E0A0E0B1E0E2E5F2E102C005900D923D
:10013000AC31B107D9F721E0ACE1B1E001C01D92CB
:10014000A435B207E1F70E94A0010C9427090C9492
:100150000000FC014FE05DE16150D8F091919527DE
:10016000292F22952F709227292F30E0542F4427D2
:1001700042275327C901982F88279295907F4827B7
:100180005927A5E0220F331FAA95E1F742275327ED
:10019000E3CFCA01089587EF84B989E085B98FE775
:1001A0008AB91BB80895A7E0B0E0E9EDF0E00C943F
:1001B0005E08898382E08A831D821C8265E0CE010D
:1001C00001960E94A9009E838F832CE331E041E0D9
:1001D00050E067E070E0CE0101960E94B5082796D6
:1001E000E2E00C947A08AFE0B0E0E9EFF0E00C94C4
:1001F0005C08162F898382E08A831B8280E096E068
:100200009D838C8365E0CE0101962F874E870E94E7
:10021000A9009E838F8318874E8549872F852A875B
:100220000B8764E0CE0108960E94A9009C878D8709
:100230002CE331E041E050E067E070E0CE01019650
:100240000E94B5082CE331E041E050E066E070E048
:10025000CE0108960E94B5082F96E4E00C94780829
:100260000F932CE331E041E050E067E070E08CE177
:1002700091E00E948508019709F060C090911F01EC
:100280008091200180931F01909320019093210180
:100290008093220180911C01853059F08C3289F0C5
:1002A000843009F048C00AE420E042E060E089E0E0
:1002B00005C00AE420E041E060E08AE00E94F3002B
:1002C0003DC05A9A80911F0190912001049711F02E
:1002D0005B9A31C02CE331E041E050E064E070E033
:1002E00083E291E00E948508019721F55C9A8FE7EF
:1002F0000E94D30020E030E040EA50E46091230106
:100300007091240180912501909126010E94E006C0
:1003100020E030E04CEC51E40E94D30720E030E0D4
:10032000A9010E94E0060E944C0780911E010E94D4
:10033000F20104C05D9A8EE70E94D3000F910895E8
:1003400084B7877F84BF0FB6F894A895809160002A
:10035000886180936000109260000FBE90E080E89A
:100360000FB6F89480936100909361000FBE0E94D5
:10037000AD040E94CB000E94E9016CE371E080E0D3
:1003800091E00E941A06789460E880E00E94F201F1
:1003900060E881E00E94F2010E94300180E091E07B
:1003A0000E94E40580E091E00E947C0580E091E0FD
:1003B0000E94BA050E943703EFCF0895089580E0A8
:1003C00091E00E945505089580E091E00E942E067C
:1003D000089582E58CBD08958EBD0DB407FEFDCF56
:1003E0008EB50895CF93823070F4C62F2898880F69
:1003F000880F880F0E94EC0180E00E94EC018C2F96
:100400000E94EC01289ACF910895292F332722309A
:10041000310559F02330310569F021303105F9F407
:1004200082E190E022E031E01EC08EE390E024EC17
:1004300030E019C099278130910541F08230910553
:1004400041F0892B61F4E0ECF0E005C0ECEAF0E06B
:1004500002C0E8E8F0E0849190E09F0104C080E0F1
:1004600090E020E030E0FA01318320830895A2E09B
:10047000B0E0EDE3F2E00C945D08ECE4F1E088E03C
:100480008E0F9091F10091938E13FBCF0E94E401A7
:100490008091E80083FFD8C080914C0190914D017C
:1004A000492F50E04A30510508F0CEC0FA01E65C11
:1004B000FF4F0C944808803881F0823809F0C4C09E
:1004C000809150018F708093E9008091EB0085FB53
:1004D000882780F91092E90001C080E09091E8003F
:1004E000977F9093E8008093F1001092F10087C00D
:1004F000282F2D7F09F0A8C0823009F0A5C0809177
:100500004E01811127C0809150018F7009F49CC069
:100510008093E9002091EB0020FF1CC0933021F470
:100520008091EB00806214C09091EB0090619093F9
:10053000EB0021E030E0A90102C0440F551F8A956D
:10054000E2F74093EA001092EA008091EB008860A5
:100550008093EB001092E9008091E800877F52C001
:10056000811172C010914E011F778091E300807855
:10057000812B8093E3008091E800877F8093E800DF
:100580000E9428048091E80080FFFCCF8091E30066
:1005900080688093E300111102C082E001C083E013
:1005A0008BBD52C08058823008F04EC0AE014F5F04
:1005B0005F4F6091500180914E0190914F010E94D8
:1005C0000502BC01892B09F43FC09091E800977F98
:1005D0009093E80089819A810E9451038091E800FC
:1005E0008B778093E80030C0803871F58091E80007
:1005F000877F8093E80080914A018093F100809189
:10060000E8008E778093E8000E9428041DC08111C5
:100610001BC090914E019230B8F48091E800877F22
:100620008093E80090934A010E94280480914A0137
:10063000811106C08091E30087FD02C081E001C006
:1006400084E08BBD0E94DF018091E80083FF0AC037
:100650008091E800877F8093E8008091EB008062C2
:100660008093EB002296E3E00C9479080895CF93F1
:100670008BB58823A1F0C091E900CF709091EC0078
:10068000892F817090FD80E8C82B1092E90080913D
:10069000E80083FD0E943702CF70C093E900CF913C
:1006A000089520915201309153012617370748F0E1
:1006B0006115710539F42091E8002E772093E80048
:1006C00001C0B901FC0120E06115710561F18BB534
:1006D0008823D9F18530D9F18091E80083FD39C0B4
:1006E0008091E80082FD2BC08091E80080FFECCF74
:1006F0008091F20090E06115710559F08830910504
:1007000040F424912093F1003196615071090196D3
:10071000F2CF21E0089709F020E08091E8008E7781
:100720008093E800D1CF2111D2CF09C08BB58823A7
:1007300061F0853061F08091E80083FD0AC080910E
:10074000E80082FFF3CF80E0089582E0089583E01F
:10075000089581E00895982F953058F59093E90019
:10076000981739F07091EC002091ED005091F00055
:1007700003C0242F762F50E021FF19C03091EB00E9
:100780003E7F3093EB003091ED003D7F3093ED00E4
:100790003091EB0031603093EB007093EC002093CC
:1007A000ED005093F0002091EE0027FF07C09F5FFF
:1007B000D3CF8F708093E90081E0089580E00895A1
:1007C000EF92FF920F931F93CF93DF93E62EEC01EE
:1007D0008C010C5F1F4FF12CFE14A1F1988199231D
:1007E00061F1F801208169817A8131973081892F07
:1007F0008F70853010F080E026C0223010F442E087
:1008000001C046E0E8E0F0E020E0E617F70720F45A
:100810002F5FEE0FFF1FF9CF2295207F422B232F52
:100820002295220F220F207C991F9927991F622F52
:10083000692B0E94AB038823F1F2F39425960B5F9A
:100840001F4FCACF81E0CDB7DEB7E6E00C94760843
:1008500080914C0187FF0FC08091E80082FD04C0A9
:100860008BB58111F9CF10C08091E8008B770AC059
:100870008BB5882349F08091E80080FFF9CF809103
:10088000E8008E778093E80008952091E40030918D
:10089000E50095E64091EC00842F817040FF21C077
:1008A0008091E80080FD1BC08BB5882391F08530D6
:1008B00091F08091EB0085FD10C04091E4005091D3
:1008C000E5004217530731F39A01915019F784E07C
:1008D000089582E0089583E0089581E0089580E01E
:1008E00008954091E80042FFDFCF08950E94B804C8
:1008F0000E94BB048091D8008F778093D8008091AC
:10090000D80080688093D8008091D8008F7D809334
:10091000D80084E089BD86E089BD09B400FEFDCF22
:100920001BBC10924A0142E060E080E00E94AB03F1
:100930008091E1008E7F8093E1008091E2008160F0
:100940008093E2008091E20088608093E2008091D1
:10095000E0008E7F8093E0000895E3E6F0E0808180
:100960008E7F808381E080934B010E9476040895FE
:100970001092E20008951092E10008951F920F92E4
:100980000FB60F9211242F933F934F935F936F9362
:100990007F938F939F93AF93BF93EF93FF93809138
:1009A000E10080FF17C08091E20080FF13C08091BA
:1009B000E2008E7F8093E2008091E200806180936C
:1009C000E2008091D80080628093D80019BC1BBCE3
:1009D0000E94DE018091E10084FF2FC08091E2003F
:1009E00084FF2BC084E089BD86E089BD09B400FE88
:1009F000FDCF8091D8008F7D8093D8008091E10059
:100A00008F7E8093E1008091E2008F7E8093E200F0
:100A10008091E20081608093E20080914A01882306
:100A200011F084E007C08091E30087FD02C081E0FF
:100A300001C083E08BBD0E94DD018091E10083FF56
:100A400023C08091E20083FF1FC08091E100877F77
:100A50008093E10082E08BBD10924A018091E10019
:100A60008E7F8093E1008091E2008E7F8093E20090
:100A70008091E20080618093E20042E060E080E0EB
:100A80000E94AB030E943603FF91EF91BF91AF919B
:100A90009F918F917F916F915F914F913F912F9196
:100AA0000F900FBE0F901F901895CF93DF93EC011E
:100AB000FC0170968BE0DF011D928A95E9F782E0D8
:100AC0008C83898783E08E8761E0CE0101960E9446
:100AD000E003811102C080E00CC061E0CE01069607
:100AE0000E94E0038823B9F361E0CE010B960E94D7
:100AF000E003DF91CF9108958BB508950F931F9375
:100B0000CF932BB5243001F5FC0104891589268982
:100B10003789012B022B032BB9F0C62F81818F70EF
:100B20008093E9008091E80085FF04C0C093F10044
:100B300080E00BC08091E8008E778093E8000E94EF
:100B40004504882399F301C082E0CF911F910F9152
:100B50000895FB01682F848595850E947E0521E01C
:100B600030E0811102C020E030E088279927821B05
:100B7000930B08952BB5243029F5FC014489558940
:100B800066897789452B462B472BE1F081818F7051
:100B90008093E9008091F200882391F09091E80021
:100BA0008091E8008E778093E80095FD09C00E944F
:100BB0004504811108C08091E8008E778093E80099
:100BC00080E0089582E008952BB5243019F08FEF6E
:100BD0009FEF0895FC014489558966897789452BE3
:100BE000462B472BA1F386818F708093E90080917B
:100BF000E80082FFECCF8091F200882321F0209161
:100C0000F10030E002C02FEF3FEF8091F200811140
:100C100005C08091E8008B778093E800C9010895B2
:100C2000FC01848595850E94E40597FF02C08EEF44
:100C30009FEF0895FB012EE0DB011D922A95E9F755
:100C400023E0238329EA35E03187208720E136E05D
:100C5000338722879587848708950895CF93DF93FC
:100C60002091E80023FFA8C0FC01208130E04091E2
:100C70005001509151014217530709F09DC0EC01FA
:100C800080914D01813259F018F48032F1F194C015
:100C9000823209F46CC0833209F47EC08DC0809129
:100CA0004C01813A09F088C08091E800877F8093E9
:100CB000E8008091E80080FFFCCF8C899D89AE8997
:100CC000BF898093F100492F5A2F6B2F77274093CC
:100CD000F100AD01662777274093F1008B2F99270C
:100CE000AA27BB278093F100888D8093F100898D1E
:100CF0008093F1008A8D8093F1008091E8008E77D7
:100D00008093E8000E94280457C080914C018132F2
:100D100009F052C08091E800877F8093E8008091BD
:100D2000E80082FD04C08BB58111F9CF45C0309138
:100D3000F1002091F1009091F1008091F1003C8B45
:100D40002D8B9E8B8F8B8091F100888F8091F1008D
:100D5000898F8091F1008A8F8091E8008B77809352
:100D6000E8000E942804CE010E942D0625C0809133
:100D70004C01813209F58091E800877F8093E8007B
:100D80000E94280480914E0190914F01998B888B8D
:100D9000CE010E942D0610C080914C01813261F479
:100DA0008091E800877F8093E8000E94280460918A
:100DB0004E01CE010E942D06DF91CF91089550582B
:100DC000BB27AA270E94F7060C9499070E948B075D
:100DD00038F00E94920720F039F49F3F19F426F46E
:100DE0000C9488070EF4E095E7FB0C948207E92F3A
:100DF0000E94AA0758F3BA1762077307840795077A
:100E000020F079F4A6F50C94CC070EF4E0950B2EA7
:100E1000BA2FA02D0B01B90190010C01CA01A0014C
:100E20001124FF27591B99F0593F50F4503E68F1A7
:100E30001A16F040A22F232F342F4427585FF3CFE8
:100E4000469537952795A795F0405395C9F77EF4B9
:100E50001F16BA0B620B730B840BBAF09150A1F002
:100E6000FF0FBB1F661F771F881FC2F70EC0BA0F88
:100E7000621F731F841F48F4879577956795B79510
:100E8000F7959E3F08F0B0CF9395880F08F099270B
:100E9000EE0F9795879508950E9453076894B111B6
:100EA0000C94CD0708950E94B20788F09F5798F0E0
:100EB000B92F9927B751B0F0E1F0660F771F881F5F
:100EC000991F1AF0BA95C9F714C0B13091F00E9479
:100ED000CC07B1E008950C94CC07672F782F8827B2
:100EE000B85F39F0B93FCCF3869577956795B395A0
:100EF000D9F73EF490958095709561957F4F8F4F0F
:100F00009F4F089597F99F6780E870E060E008952B
:100F10009FEF80EC089500240A9416161706180611
:100F20000906089500240A941216130614060506ED
:100F30000895092E0394000C11F4882352F0BB0F7E
:100F400040F4BF2B11F460FF04C06F5F7F4F8F4FE1
:100F50009F4F089557FD9058440F551F59F05F3F1C
:100F600071F04795880F97FB991F61F09F3F79F0CB
:100F700087950895121613061406551FF2CF46954D
:100F8000F1DF08C0161617061806991FF1CF8695CF
:100F90007105610508940895E894BB2766277727B3
:100FA000CB0197F908950E94E5070C9499070E94D8
:100FB0008B0738F00E94920720F0952311F00C94D3
:100FC00082070C9488070C94CD070E94AA0778F337
:100FD0009923C9F35523B9F3950F50E0551FAA275C
:100FE000EE27FF27BB2700240894679520F4E20F23
:100FF000F31FB41F0A1E220F331F441FAA1F66953A
:10100000A9F7779530F4F30FB41F0A1E121E08F4E7
:101010006395330F441FAA1F221F769599F7879572
:1010200020F4B40F0A1E121E631F440FAA1F221FB2
:10103000331F8695A9F7862F712D602D11249F5798
:1010400050409AF0F1F088234AF0EE0FFF1FBB1FCB
:10105000661F771F881F91505040A9F79E3F51058A
:1010600080F00C9482070C94CD075F3FE4F3983E28
:10107000D4F3869577956795B795F795E7959F5F34
:10108000C1F7FE2B880F911D9695879597F90895C6
:10109000EE0FFF1F0590F491E02D09942F923F92DF
:1010A0004F925F926F927F928F929F92AF92BF9278
:1010B000CF92DF92EF92FF920F931F93CF93DF9324
:1010C000CDB7DEB7CA1BDB0B0FB6F894DEBF0FBE81
:1010D000CDBF09942A88398848885F846E847D84CE
:1010E0008C849B84AA84B984C884DF80EE80FD80D0
:1010F0000C811B81AA81B981CE0FD11D0FB6F89446
:10110000DEBF0FBECDBFED010895A0E0B0E0EBE87B
:10111000F8E00C9454085B014A017901F90123813C
:1011200020FF1AC0C0E0D0E0C815D905C1F08C017D
:101130006C01CA0CDB1CC8010C151D0559F0C70158
:101140000E94E9088F3FFFEF9F0749F0F801819364
:101150008F01F1CF2196E8CF80E090E001C0CE0171
:10116000CDB7DEB7ECE00C947008A0E0B0E0EBEB9C
:10117000F8E00C9454085B014A017901D9011396F7
:101180002C9121FF1DC0C0E0D0E0C815D905D9F0D1
:101190008C016C01CA0CDB1CC8010C151D0571F01B
:1011A0000F5F1F4FD7011896ED91FC911997B7016A
:1011B000DC018C910995892B79F305C02196E5CF47
:1011C00080E090E001C0CE01CDB7DEB7ECE00C943A
:1011D0007008CF93DF93EC012B8120FF33C026FFF3
:1011E0000AC02F7B2B838E819F8101969F838E83E4
:1011F0008A8190E029C022FF0FC0E881F9818081B7
:10120000082E000C990B009719F420622B831AC04A
:101210003196F983E8830EC0EA85FB85099597FF2F
:1012200009C02B81019611F080E201C080E1822B80
:101230008B8308C02E813F812F5F3F4F3F832E83DA
:10124000992702C08FEF9FEFDF91CF910895F89417
:02125000FFCFCE
:101252000083100000010410000001820800000158
:0C12620000000000000000000000000080
:00000001FF
